:020000040800F2
:10000000201E00200101000821340008893000086A
:100010001D340008790F0008E144000800000000CA
:10002000000000000000000000000000853C000807
:10003000CD0F000800000000C93A0008413D00084B
:100040001B0100081B0100081B0100081B01000820
:100050001B0100081B0100081B0100081B01000810
:100060001B0100081B0100081B0100081B01000800
:100070001B0100081B0100081B0100081B010008F0
:100080001B0100081B0100081B0100081B010008E0
:100090001B0100081B0100081B0100081B010008D0
:1000A0001B0100081B0100081B0100081B010008C0
:1000B0001B0100081B0100081B0100081B010008B0
:1000C0001B0100081B0100081B0100081B010008A0
:1000D0001B010008A1430008C5430008D5430008E0
:1000E0001B0100081B0100081B010008DFF80CD0F1
:1000F00000F0ECFC00480047E9550008201E0020F5
:100100000648804706480047FEE7FEE7FEE7FEE7B1
:10011000FEE7FEE7FEE7FEE7FEE7FEE7B13D00088B
:10012000ED000008202A04DB203A21FA02F0002129
:10013000704721FA02F3D040C2F1200291400843F7
:1001400019467047A0F14101192900D820307047A5
:1001500040EA01039B0703D009E008C9121F08C049
:10016000042AFAD203E011F8013B00F8013B521EC9
:10017000F9D27047D2B201E000F8012B491EFBD240
:1001800070470022F6E710B513460A4604461946A2
:10019000FFF7F0FF204610BD30B505462A460B4656
:1001A00012F8010B13F8014B08B1A042F8D01CB1B2
:1001B000002802D06D1CF1E7284630BDCAB2401EAF
:1001C00010F8011F8A4202D00029F9D1002070479F
:1001D000421C10F8011B0029FBD1801A704703460E
:1001E00011F8012B00F8012B002AF9D118467047AD
:1001F00030B505460020034600E05B1C934205D263
:10020000EC5CC85C201A01D1002CF6D130BD000096
:100210000FB400B58DB010A909900B9000914FF06C
:10022000FF300A9000200C90054806900548079082
:100230006A4609A80F9900F01FFB0DB05DF814FB8A
:1002400095080008B30800082DE9FF5F1D464FF030
:10025000FF3BD5E9014691465F464FF00008A9698A
:100260007F1C01988847296A824688470028F6D172
:10027000BAF1FF3F0CD024F4C064002E19DD6006F3
:1002800014D5BAF12B0F09D0BAF12D0F0ED103E01E
:10029000584604B0BDE8F09F44F48064A9697F1C0F
:1002A00001988847761E8246002E02DDBAF1300F93
:1002B00003D0B9F1000F26D032E0A969761E44F4CC
:1002C00000747F1C019888478246002E05DDBAF134
:1002D000780F06D0BAF1580F03D0B9F1000F10D043
:1002E0001EE0B9F1000F02D0B9F1100F18D1A969C1
:1002F000761E24F400747F1C0198884782461020E3
:1003000002E0082000E00A20814609E008FB090815
:10031000A969761E44F400747F1C019888478246C0
:10032000002E05DD4946504600F092FA0028EDDA2D
:10033000E96901988847A00502D46FF00100A8E799
:10034000E00725D1600613D5600502D5C8F100008D
:1003500000E0404629680A1D2A600968220501D587
:10036000087015E0220701D5088011E008600FE051
:100370002868011D29600068210502D580F80080E9
:1003800006E0210702D5A0F8008001E0C0F8008057
:1003900038467EE72DE9FF5FD2E901A74FF000085C
:1003A000916999461446DDF838B046460198884769
:1003B000054659EA0B0005D009E0A169761C0198B1
:1003C00088470546216A284688470028F5D1681CD9
:1003D00003D05FEACA7005D015E04FF0FF3004B0DB
:1003E000BDE8F09F2068011D2160D0F800800AE080
:1003F0005FEACA7001D108F8015BA169761C7F1E13
:10040000019888470546002F1ADD681C18D0B9F1FD
:10041000000F0DD0E81705EBD060421120F01F004F
:1004200059F822102A1A012090400142E0D107E039
:10043000BBF1000FDCD1216A284688470028D7D0BD
:10044000E16901988847BBF1000F07D1002E05DD57
:100450005FEACA7002D1002188F80010A068B84293
:1004600003DDBBF1000F03D017B16FF00100B6E759
:100470003046B4E72DE9FE4F804681EA0300C00F05
:100480000C46009021F0004123F00045B8EB02003B
:10049000A94105D24046214690461C460B460246DD
:1004A00023F00040104347D0270DC7F30A00C3F3E1
:1004B0000A510290401A019040286BDAC3F31300EE
:1004C00040F4801B0098924620B10023D2EB030A2F
:1004D00063EB0B0B01985946C0F14002504600F007
:1004E00096F906460D4650465946019A00F09EF987
:1004F00010EB08006141002487EA115284EAE77397
:100500001A4340D0009A62B3019A012A4FEA075277
:1005100015DC001B61EB02014FF0004202EA0752BA
:10052000CDE90042001C41F5801132462B4600F017
:10053000E0F903B0BDE8F08F40462146F9E7001B23
:1005400061EB0201001C41F5801300185B4120188B
:10055000A2F5001747EB030140EAD570B6196D41CB
:1005600011E06D084FEA360645EAC0754FEA0752BA
:10057000001B61EB0201001C41F5801149084FEAA4
:1005800030000019514132462B4603B0BDE8F04F10
:1005900000F0A0B90098012240000023D0EB020235
:1005A00063EBE073009821464FEAE074B8EB00007B
:1005B00061EB0401E9E783F000435BE781F0004170
:1005C00058E72DE9FE4F81EA030404F0004421F0CE
:1005D000004100944FF0000B23F0004350EA010467
:1005E0005ED052EA03045BD0C3F30A54C1F30A5548
:1005F0002C44A4F2F3340194A0FB0254C1F3130180
:1006000041F48011C3F3130343F4801301FB02444C
:1006100000FB034E840A970A44EA815447EA835751
:10062000A4FB076802958D0A05FB07854FEA932C0A
:1006300004FB0C542705029D4FEA065847EA16377B
:10064000B5EB08056EEB070C870E920E47EA811793
:1006500042EA8312A7FB0201B6EB0B0164EB000434
:100660002B0D43EA0C335E1844EB1C50DA4651461E
:10067000E7FB0201C5F313044FEA0B3343EA1453BB
:100680004FEA0432019C43EA0603A4F10C040294ED
:10069000009CCDE900B400F02CF903B0BDE8F08F68
:1006A00000200146F9E70EB5C10F80EAE07008446A
:1006B000CA07002140F233438DE80E000A460B467C
:1006C00000F017F903B000BD0EB540F233410291BE
:1006D0000021CDE900110A460B4600F00AF903B0EB
:1006E00000BD70B5C1F30A5201F000450024C1F30A
:1006F000130140F2FF3341F480119A4201DA0020E5
:1007000070BD40F233439A42A2F2334203DC5242BC
:10071000FFF708FD00E090402C43F1D0404270BD4F
:1007200030B5041E71F1000404DB4FF00044404278
:1007300064EB0101141E73F1000405DB1C464FF04D
:100740000043524263EB04038B4208BF824230BD38
:1007500030B5041E71F1000404DB4FF00044404248
:1007600064EB0101141E73F1000405DB1C464FF01D
:100770000043524263EB0403994208BF904230BDEC
:1007800030B50B46014600202022012409E021FA61
:1007900002F59D4205D303FA02F5491B04FA02F55E
:1007A0002844151EA2F10102F1DC30BD2DE9F05FF5
:1007B0000546002092469B468846064681464024D0
:1007C0001BE02846414647462246FFF7ABFC53460E
:1007D0005A46C01A914110D311461846224600F0DD
:1007E00016F82D1A67EB01084F462246012000211A
:1007F00000F00DF817EB00094E41201EA4F1010492
:10080000DFDC484631462A464346BDE8F09F202AB1
:1008100004DB203A00FA02F1002070479140C2F157
:10082000200320FA03F3194390407047202A06DB87
:10083000CB17203A41FA02F043EAE07306E041FAAE
:1008400002F3D040C2F1200291400843194670479C
:100850003A2800D2303820F02002412A01D3A2F1F8
:100860003700884201D34FF0FF30704702681144CF
:100870001378016018467047D160044951610449FA
:10088000116200211161114600F038B96D080008AD
:10089000F10A0008426842B1016811F8013B23B136
:1008A000521EC0E90012184670470121C160881E1F
:1008B000704742685AB1C368016843B983688B4284
:1008C00005D0491E521CC0E90012002070474FF0AD
:1008D000FF30704710B5141E73F1000408DA401C95
:1008E00041F1000192185B411A4301D120F001004F
:1008F00010BD2DE9F04D92469B4611B1B1FA81F23F
:1009000002E0B0FA80F220329046FFF780FF044602
:100910000F4640EA0A0041EA0B0153465A46084393
:1009200013D0114653EA010019D0C8F140025046D5
:10093000FFF7F8FB05460E46504659464246FFF77C
:1009400066FF084305D0012004E020463946BDE893
:10095000F08D0020054346EAE0762C4337430A98A1
:100960006305E40AA0EB08000022FD0A44EA4754AC
:100970000A3002D500200146E9E701051019694156
:10098000DDE9084500196941BDE8F04DA2E72DE910
:10099000F04D81EA030404F0004B21F000451446B9
:1009A0004FF0000A23F0004150EA050220D054EA3B
:1009B00001021DD0C5F30A570246C5F31303C1F364
:1009C0001300C1F30A5640F4801543F48013A7EBDB
:1009D0000608101BD64608F2FD3873EB050002D35B
:1009E00008F1010801E092185B41B8F1000F03DA49
:1009F00000200146BDE8F08D00204FF4801106462E
:100A000084460EE0171B73EB050705D3121B63EB3F
:100A1000050306434CEA010C49084FEA30009218DE
:100A20005B4150EA0107EDD152EA030012D082EA9D
:100A3000040083EA0501084305D0101BAB4106D230
:100A40000122002306E000224FF0004302E06FF095
:100A5000010253101AEB06004CEB085110EB0A0090
:100A600041EB0B01BDE8F04DFFF734BF70B521F04D
:100A7000004303430CD0C1F30A550024D5EB040511
:100A800064EB0403D617AD1AB34102DB0020014624
:100A900070BD201841EB025170BDC1F30A52C1F381
:100AA000130140F2FF3341F480119A4202DA002030
:100AB0000146704740F233439A42A2F2334202DCCD
:100AC0005242FFF72FBBFFF7A2BE0000064C074DB6
:100AD00006E0E06840F0010394E80700984710340E
:100AE000AC42F6D3FFF706FB008E0008208E00080C
:100AF000C0B24FF4F05100F0E9B900002DE9F34F16
:100B00008BB04FF0000801F10C000C464FF0010BC8
:100B100046460DF1080A019062690121019890474B
:100B2000051E2DD0252D2CD0216A8847C0B16269C1
:100B3000012101989047216A88470028F7D1411E7A
:100B400062690198904700E0761CA1690B9888477C
:100B5000216A88470028F7D1E1690B988847DBE7CD
:100B6000A1690B9888470746A84201D1761CD3E7B4
:100B7000E1690B9888477F1C02D1B8F1000F6FD054
:100B800046E1002762693D463946019890472A2888
:100B900004D162690121019890470125DFF8849210
:100BA0006269012101989047A0F130010A290AD217
:100BB0004F45E5DC07EB870100EB4107303FDFD411
:100BC00045F01005ECE7E90601D46FF000476C280A
:100BD0000AD04C2814D0682815D06A280DD0742863
:100BE0001CD07A281AD01DE0626901210198904733
:100BF0006C2802D045F0040514E045F002050DE034
:100C000045F020050AE062690121019890476828B3
:100C100002D045F0080505E045F400656269012150
:100C200001989047C4E9015765283DD019DC582840
:100C30007AD00CDC452837D004DC252826D0412882
:100C400031D131E046282FD047282CD12CE05B2829
:100C500077D0612828D063287CD0642823D15AE03B
:100C6000D0E06F2848D008DC66281DD067281BD04C
:100C7000692821D06E2816D127E0702845D0732826
:100C800068D0752847D078280DD14DE0A1690B9820
:100C90008847054625283FF469AFE1690B988847E6
:100CA0006D1C3FF46AAFB3E023466A466FF0010063
:100CB0000B99AFF300809EE045F040006060A8070C
:100CC00023464FF0000236D43EE0E8077FF447AFFA
:100CD0002068011D21600068290501D506701BE709
:100CE000290701D5068017E7A90703D5F117C0E941
:100CF000006111E706600FE745F040006060A8075B
:100D000023464FF0080216D41EE040F60E0125EAF5
:100D10000100606016E045F040006060A8072346CF
:100D20004FF00A0207D40FE045F040006060A807CA
:100D300008D5234610226FF001000B99AFF3008015
:100D400059E007E0234610226FF001000B99FFF7EE
:100D50007BFA50E04FF000094F464B46632802D023
:100D60005B2806D040E0E80601D40120A0600127FE
:100D70003AE062690121019890475E2805D14FF061
:100D800001096269494601989047216939B90021F2
:100D90000A46534643F82120491C0829FADBB0B320
:100DA000216969B9C11700EBD16253110AEB8301C4
:100DB00022F01F02821A01200B68904003430B604F
:100DC00062690121019890475D28E8D1B9F1000FCF
:100DD00009D00020514651F82020D24341F820206C
:100DE000401C0828F7DB02AB224600976FF0010099
:100DF0000B99FFF7CFFA00280CDA401C08D1BBF1A1
:100E0000000F05D04FF0FF300DB0BDE8F08FFFE7C9
:100E10004046F9E7E90701D108F1010806444FF01F
:100E2000000B79E6CCCCCC0C2DE9F04D00231A4612
:100E30001B1A8A4103DB00200146BDE8F08DC1F397
:100E40000A52C1F3130141F480154FF0000BD10792
:100E500002D100186D41521E0027044640F2FF11D6
:100E6000384601EB620A3E468046024600204FF4B7
:100E70008011FFF757F9C2197141BB1846EB010009
:100E8000B4EB030C75EB000C04D3E41A65EB00051E
:100E900017460E46241908F101006D41804634289A
:100EA000E3DDF91946EB0600091BA84103D24FF018
:100EB000FF32134601E0002213461BEB070046EB0E
:100EC0000A51BDE8F04DFFF705BD00007F2801D9AC
:100ED000002208E0064A02EB5002C007127800D157
:100EE000120902F00F0201209040084070470000F4
:100EF000308C000808B51D4840781C49097840EA44
:100F00000120ADF800001948C0781849897840EAF6
:100F10000120ADF802001648007828B9022269467F
:100F2000144807F005FA1FE011480078012806D19F
:100F3000022269460F48001D07F0FAF914E00C4838
:100F40000078022806D1022269460A48083007F0D4
:100F5000EFF909E006480078032805D10222694626
:100F600004480C3007F0E4F908BD00001C00002024
:100F7000090000200090000800BFFEE770B505469C
:100F80000C460026284602F0C3FD064626EA040168
:100F9000284603F0CDFA70BD01B53223012269461F
:100FA000014802F007F808BDE003002010B5AF20AB
:100FB00005490968086441F2883000F023FC3220BA
:100FC00001490968086410BDB80D00207047000091
:100FD00010B501210248007800F0F2F910BD0000C0
:100FE0000900002070B5054615B1012D10D107E0AC
:100FF0004FF4FA720AA10BA000F0DEF8044609E0F3
:101000004FF4FA7206A109A000F0D6F8044601E0F8
:10101000032070BD00BF0CB90020FAE70120F8E7FB
:101020004F4B000041544530000000004154453111
:101030000000000030B5ADF5017D0446224609A14F
:1010400001A803F0E7FA4FF47A720DA101A800F0AD
:10105000B3F805461DB900200DF5017D30BD012016
:10106000FAE7000041542B4D515454434C49454E2E
:101070005449443D302C222573220D0A0000000003
:101080004F4B0000F0B5ADF5017D04460D46164608
:101090002B46224609A101A8009603F0BBFA4FF4A3
:1010A0007A720DA101A800F087F807461FB9002049
:1010B0000DF5017DF0BD0120FAE7000041542B4DF4
:1010C000515454434F4E4E3D302C222573222C2533
:1010D000642C25640D0A00004F4B000030B5ADF5BF
:1010E000017D0446224609A101A803F093FA4FF4BA
:1010F0007A720CA101A800F05FF805461DB9002026
:101100000DF5017D30BD0120FAE7000041542B4D63
:101110005154545355423D302C222573222C310D0D
:101120000A0000004F4B000070B5ADF5007D04468D
:101130000D462B46224609A1684603F06BFA4FF490
:101140007A7212A1684600F037F806461EB90020F0
:101150000DF5007D70BD0120FAE7000041542B4DD4
:10116000515454555345524346473D302C312C225F
:101170004E554C4C222C222573222C222573222CD6
:10118000302C302C22220D0A000000004F4B0000B2
:1011900010B54FF4FA7205A105A000F00DF8044651
:1011A0000CB9002010BD0120FCE700004F4B0000EF
:1011B00041542B52535400002DE9F04105460E4690
:1011C0001446002703F09AFF29460FA003F062FFA0
:1011D00006B114B90020BDE8F08110E003F078FFFB
:1011E000074647B131463846FEF7D6FF08B1002022
:1011F000F1E703F083FF641E012000F003FB002CE5
:10120000ECD10220E7E7000025730D0A0000000082
:1012100070B5A0B004460D462B46224608A168468C
:1012200003F0F8F940F6B8320AA16846FFF7C4FFA8
:10123000064616B9002020B070BD0120FBE7000073
:1012400041542B43574A41503D222573222C2225DD
:10125000732200004F4B0000704700000021074A36
:10126000D1610749096941F00401054A116111463C
:10127000096941F04001116170470000000E002033
:10128000002002400021074AD1610749096941F065
:101290000201054A116111464861096941F04001A6
:1012A00011617047000E0020002002400022054B13
:1012B000DA61054A126942F00102034B1A610180AA
:1012C00070470000000E00200020024000201E4950
:1012D000C96801F0100139B11C49C96941F0020126
:1012E0001A4AD16140F010001749C96801F00401A1
:1012F00039B11649C96941F00101144AD16140F080
:1013000004001149C96901F0010169B10F49C969B6
:1013100041F004010D4AD16100BF0B49C96921F0B8
:101320000101094AD16100BF00BF40F201118842AA
:1013300006D10549C96921F00101034AD16101E0E3
:101340000149C86000BF704700200240000E002025
:1013500070B5044600F0DAFC054609E0601C38B1BF
:1013600024B100F0D3FC401BA04201D9032070BD82
:101370001248C06800F001000028EFD10F48C06893
:1013800000F0200020B100BF20200C49C86000BF41
:101390000A48C06800F0100048B90848C06900F069
:1013A000010020B90548C06800F0040018B1FFF73B
:1013B0008DFF0120DBE70020D9E70000002002407C
:1013C0002DE9F04104460D4602F087FC02F05CFC7A
:1013D000012002F07CFC072002F087FC0C2002F0C8
:1013E0008EFC2012FFF7D8FDE0B2FFF7D5FD2812E2
:1013F000FFF7D2FDE8B2FFF7CFFD142000EB242069
:10140000E1B2084400EB2520E9B200EB01084046B8
:1014100002F054FC4FF4FA6001F038FE07460FB1B9
:101420007E7A00E0FF263046BDE8F0812DE9F041EC
:10143000054602F052FC02F027FC012002F047FCB6
:10144000042002F052FC022002F059FC2846FFF76B
:10145000A3FDEF1D384602F031FC4FF4FA6001F0B5
:1014600015FE06460EB1747A00E0FF242046BDE862
:10147000F08170B502F031FC02F006FC012002F0B0
:1014800026FC032002F031FC012002F038FC052686
:10149000304602F013FC4FF4FA6001F0F7FD054608
:1014A0000DB16C7A00E0FF24204670BD10B50446F3
:1014B00002F013FC02F0E8FB0120FFF76DFD0020B5
:1014C000FFF76AFD0020FFF767FDC82000F09AF9DA
:1014D00012480078F8B100201049087010480078D0
:1014E000EF2818D10E484078012814D10C48807993
:1014F000072810D10A48807800060949C97800EB0E
:1015000001400749097900EB012005494979084460
:101510002060002010BD0120FCE700001300002027
:10152000240100202DE9F04781460D4616461F464E
:1015300002F0D3FB02F0A8FB012002F0C8FB082058
:1015400002F0D3FB1B2002F0DAFB4846FFF724FD34
:101550002812FFF721FDE8B2FFF71EFD3012FFF75A
:101560001BFDF0B2FFF718FD09F1240000EB252068
:10157000E9B2084400EB2620F1B200EB010A504624
:1015800002F09CFB4FF4FA6001F080FD0446A4B128
:1015900094F80980E07AA17A00EB0120388039883C
:1015A00008A003F027F8607B217B00EB0120788006
:1015B000798807A003F01EF801E04FF0FF084046CD
:1015C000BDE8F0877061676549443A25640D0A00FB
:1015D0006D61746873636F72653A25640D0A00006B
:1015E00070B502F07AFB02F04FFB012002F06FFBB6
:1015F000032002F07AFB032002F081FB072630462D
:1016000002F05CFB4FF4FA6001F040FD05460DB1BD
:101610006C7A00E0FF24204670BD70B502F05DFBDF
:1016200002F032FB012002F052FB032002F05DFBCE
:10163000052002F064FB0926304602F03FFB4FF420
:10164000FA6001F023FD05460DB16C7A00E0FF243D
:10165000204670BD2DE9F04106460C4602F03DFBE8
:1016600002F012FB012002F032FB062002F03DFBEB
:10167000062002F044FB3046FFF78EFC2012FFF7F5
:101680008BFCE0B2FFF788FC06F10D0000EB242094
:10169000E1B200EB0108404602F010FB4FF4FA60A3
:1016A00001F0F4FC07460FB17D7A00E0FF252846E3
:1016B000BDE8F0812DE9F041064602F00EFB02F094
:1016C000E3FA012002F003FB032002F00EFB1D20D1
:1016D00002F015FB2127384602F0F0FA4FF4FA60C9
:1016E00001F0D4FC044634B1657AE07AA17A00EBCB
:1016F0000120308000E0FF252846BDE8F08101464A
:10170000002291F82100022808D00420886300BF3D
:10171000002081F8200000BF0120704708680068A1
:1017200020F00E000B6818600868006820F00100C7
:101730000B68186091F8403001209840CB6B5860DE
:10174000012081F8210000BF002081F8200000BFA7
:101750001046E2E770B50446002594F821000228FF
:1017600003D00420A063012548E02068006820F031
:101770000E00216808602068006820F001002168E0
:1017800008601F492068884201D1012026E01C49D9
:1017900014312068884201D110201FE018492831F7
:1017A0002068884201D1801518E015493C31206835
:1017B000884201D1801411E01149503120688842DB
:1017C00002D14FF4803009E00D496431206888422D
:1017D00002D14FF4801001E04FF0807008490839C1
:1017E0004860012084F8210000BF002084F8200018
:1017F00000BF606B10B12046616B8847284670BD02
:101800000800024070B5044600F080FA06462546FE
:10181000681C10B104480078054400BF00F076FA57
:10182000801BA842FAD370BD480000202DE9F0418A
:1018300004460E460127002500BF2648007E0128E9
:1018400002D10220BDE8F08101202249087600BFC4
:101850002068022813D14CF25030FFF779FD90BB7D
:101860000120FFF7FBFC4CF25030FFF771FD0746FB
:101870001948006920F004001749086123E04CF280
:101880005030FFF765FDF0B94FF0FF303060A568CC
:1018900012E02846FFF7F6FC4CF25030FFF758FDF7
:1018A00007460D48006920F002000B4908610FB19E
:1018B000356007E005F58065D4E9021001EB802072
:1018C000A842E6D800BF00BF00200249087600BF4A
:1018D0003846B7E7000E00200020024003480069A8
:1018E00040F080000149086100207047002002405C
:1018F0002DE9FE4F05468B461746984601260024E3
:101900000020029000BF2448007E012802D102205E
:10191000BDE8FE8F01202049087600BF4CF2503010
:10192000FFF716FD064686BB012D02D1012002906D
:1019300006E0022D02D10220029001E00420029074
:1019400000241EE02201B946C24648465146FEF731
:10195000E9FB80B20190022000FB04B000900199E5
:10196000FFF7A4FC4CF25030FFF7F2FC06460B48A0
:10197000006920F001000949086106B104E0601C1B
:10198000C4B202988442DDDB00BF00BF00200249E0
:10199000087600BF3046BBE7000E00200020024062
:1019A00000200849096901F0800151B10649054A42
:1019B0005160064951601146096901F0800101B189
:1019C000012070470020024023016745AB89EFCD1D
:1019D0002DE9F8470346002294466EE14FF00108D6
:1019E00008FA02F4D1F8008008EA0400A0427DD190
:1019F000DFF8DCA2D1F80480A8EB0A09D0453AD080
:101A000014DCB8F1030F50D009DCB8F1000F31D06D
:101A1000B8F1010F1CD0B8F1020F49D120E0B8F1A4
:101A2000110F18D0B8F1120F42D11EE0B9F5881F7E
:101A300025D006DCB9F5803F20D0B9F5801F37D11D
:101A40001AE0B9F5001F18D0B9F5041F30D117E01E
:101A5000D1F80CC02DE0D1F80C8008F1040C28E07E
:101A6000D1F80C8008F1080C23E0D1F80C8008F1C3
:101A70000C0C1EE000BF00BF00BF00BF00BF00BFD6
:101A8000D1F80880B8F1000F02D14FF0040C0BE040
:101A9000D1F80880B8F1010F03D14FF0080C1C6198
:101AA00002E04FF0080C5C6103E04FF0000C00E036
:101AB00000BF00BFFF2801D8984601E003F10408E9
:101AC0004646FF2802D84FEA820803E0A2F1080840
:101AD0004FEA88084746D6F800804FF00F0909FA08
:101AE00007F928EA09080CFA07F900E088E048EA53
:101AF0000908C6F80080D1F8048008F08058B8F1D1
:101B0000805F7DD100BFDFF8CC81D8F8188048F025
:101B10000108DFF8C091C9F81880C846D8F81880C5
:101B200008F00108CDF8008000BF00BF4FEAB938C7
:101B30004FEA920958F829504FEA82784FEA18790B
:101B40004FF00F0808FA09F825EA0805DFF8888140
:101B5000434502D14FF0000816E0DFF8808143458D
:101B600002D14FF001080FE0DFF87481434502D144
:101B70004FF0020808E0DFF86C81434502D14FF0D6
:101B8000030801E04FF004084FEA82794FEA19791F
:101B900008FA09F848EA0505DFF84C814FEA92098E
:101BA00048F82950D1F8048008F48038B8F5803F0F
:101BB0000AD1DFF83881D8F8008048EA0008DFF859
:101BC0002C91C9F8008009E0DFF82081D8F8008066
:101BD00028EA0008DFF81491C9F80080D1F80480E1
:101BE00008F40038B8F5003F10D1DFF8008108F1A3
:101BF0000408D8F8008048EA0008DFF8F09000E018
:101C00005AE009F10409C9F800800DE0DFF8DC8032
:101C100008F10408D8F8008028EA0008DFF8CC9022
:101C200009F10409C9F80080D1F8048008F480188B
:101C3000B8F5801F0ED1DFF8B48008F10808D8F895
:101C4000008048EA0008DFF8A49009F10809C9F803
:101C500000800DE0DFF8948008F10808D8F80080D3
:101C600028EA0008DFF8849009F10809C9F8008023
:101C7000D1F8048008F40018B8F5001F0ED1DFF881
:101C80006C8008F10C08D8F8008048EA0008DFF8FA
:101C90005C9009F10C09C9F800800DE0DFF84C8078
:101CA00008F10C08D8F8008028EA0008DFF83C901A
:101CB00009F10C09C9F80080521CD1F8008028FAFB
:101CC00002F8B8F1000F7FF489AEBDE8F887000094
:101CD000000011100010024000080140000C0140FB
:101CE00000100140001401400800014000040140C0
:101CF000024693680B400BB1012000E000207047C2
:101D00000AB1016101E00B040361704701480068FA
:101D1000704700004000002003480068034909782C
:101D20000844014908607047400000204800002036
:101D300010B50848006840F010000649086003200C
:101D400000F0A8F8002000F007F800F02BF80020C1
:101D500010BD00000020024070B504460E48007817
:101D60004FF47A71B1FBF0F00C490968B1FBF0F562
:101D7000284600F00BFC08B1012070BD102C07D2E2
:101D800000222146501E00F047F80548046001E09B
:101D90000120F2E70020F0E7480000204C0000207E
:101DA0004400002008B500BF1148806940F00100E0
:101DB0000F4988610846806900F00100009000BF6B
:101DC00000BF00BF0846C06940F08050C8610846A7
:101DD000C06900F08050009000BF00BF00BF0549FF
:101DE000486820F0E06040F00070486000BF08BD27
:101DF000001002400000014001460846002809DBAF
:101E000000F01F0301229A4043099B0003F1E023E5
:101E1000C3F8002100BF70472DE9F05F80460D46F2
:101E20001646002702F030FC074639462A4633465C
:101E300001F00700C0F1070ABAF1040F02D94FF010
:101E4000040A01E0C0F1070AD14600F1040ABAF120
:101E5000070F02D24FF0000A01E0A0F1030AD446B6
:101E60004FF0010A0AFA09FAAAF1010A0AEA020A7B
:101E70000AFA0CFA4FF0010B0BFA0CFBABF1010B59
:101E80000BEA030B4AEA0B042146404602F004FC2D
:101E9000BDE8F09F00BF00F00702064B19684FF63F
:101EA000FF031940044B0B4343EA0221014B196025
:101EB00000BF70470CED00E00000FA0570B5044665
:101EC0000D460CB9012070BD5A48006800F00700AB
:101ED000A8420ED25748006820F007002843554911
:101EE00008600846006800F00700A84201D0012001
:101EF000E9E7207800F0020002281DD1207800F0E8
:101F00000400042805D14C48406840F4E0604A4988
:101F10004860207800F00800082805D1464840684D
:101F200040F46050444948604348406820F0F00065
:101F3000A168084340494860207800F0010078B368
:101F40006068012806D13C48006800F4003090B970
:101F50000120B8E76068022806D13748006800F021
:101F6000007040B90120AEE73348006800F002007D
:101F700008B90120A7E73048406820F003006168F5
:101F800008432D494860FFF7C1FE064609E0FFF708
:101F9000BDFE801B41F28831884202D9032092E7BE
:101FA00007E02548406800F00C006168B0EB810F45
:101FB000EDD12048006800F00700A8420ED91D4866
:101FC000006820F0070028431A49086008460068A6
:101FD00000F00700A84201D0012074E7207800F04B
:101FE0000400042807D11448406820F4E060E16848
:101FF000084311494860207800F00800082808D1FB
:102000000D48406820F46050216940EAC1000A4947
:10201000486000F03FF808494968C1F30311074AD6
:10202000515CC8400649086006480068FFF794FE06
:10203000002048E70020024000100240838B000887
:102040004C00002044000020014800687047000058
:102050004C00002000B5FFF7F7FF04494968C1F3C1
:102060000221034A515CC84000BD0000001002403C
:10207000938B000800B5FFF7E7FF04494968C1F3F7
:10208000C221034A515CC84000BD0000001002405C
:10209000938B0008F0B585B00FF26C0C9CE8E01053
:1020A00001A8A0E8E0101CA52D68009500210022E1
:1020B000002300240020194D696801F00C05F5B1DA
:1020C000042D02D0082D19D101E0154819E001AD09
:1020D000C1F38346AC5D01F4803555B10F4D6D6899
:1020E000C5F340451DF805200D4D6543B5FBF2F3E2
:1020F00002E00C4D04FB05F3184602E000BF08485F
:1021000000BF00BF05B0F0BD0203040506070809C3
:102110000A0B0C0D0E0F10100102000000100240FF
:1021200000127A0000093D00F8B504460CB9012000
:10213000F8BD207800F00100002878D0F848406809
:1021400000F00C0004280CD0F548406800F00C00AA
:10215000082811D1F248406800F48030B0F5803F83
:102160000AD1EF48006800F4003000285FD06068B2
:1021700000285CD10120DBE700BF6068B0F5803F3C
:1021800006D1E748006840F48030E549086028E05F
:10219000606858B9E248006820F48030E04908607F
:1021A0000846006820F4802008601AE06068B0F5F6
:1021B000A02F0BD1DA48006840F48020D84908608D
:1021C0000846006840F4803008600AE0D44800689F
:1021D00020F48030D24908600846006820F480204E
:1021E000086000BF606888B1FFF790FD054606E013
:1021F000FFF78CFD401B642801D9032098E7C848ED
:10220000006800F400300028F2D010E0FFF77EFDF7
:10221000054606E0FFF77AFD401B642801D903203C
:1022200086E7BF48006800F400300028F2D120782B
:1022300000F00200022857D1B948406800F00C00B5
:1022400050B1B748406800F00C00082818D1B448D5
:10225000406800F4803098B9B148006800F002008E
:1022600020B12069012801D0012061E7AC48006855
:1022700020F0F800616940EAC100A949086033E034
:102280002069E8B10120A7490860FFF73FFD054636
:1022900006E0FFF73BFD401B022801D9032047E77A
:1022A0009F48006800F002000028F2D09C480068B7
:1022B00020F0F800616940EAC1009949086013E024
:1022C000002098490860FFF721FD054606E0FFF76A
:1022D0001DFD401B022801D9032029E79048006812
:1022E00000F002000028F2D1207800F00800082851
:1022F0002DD1A069B8B101208B490860FFF706FD18
:10230000054606E0FFF702FD401B022801D9032025
:102310000EE78348406A00F002000028F2D0012056
:1023200001F0D4FB13E000207F490860FFF7EEFCCA
:10233000054606E0FFF7EAFC401B022801D903200E
:10234000F6E67748406A00F002000028F2D12078D3
:1023500000F00400042873D100277148C06900F020
:10236000805070B900BF6E48C06940F080506C4921
:10237000C8610846C06900F08050009000BF00BFEF
:1023800001276A48006800F48070B0B967480068A7
:1023900040F4807065490860FFF7B8FC054606E028
:1023A000FFF7B4FC401B642801D90320C0E65F4856
:1023B000006800F480700028F2D000BFE0680128B7
:1023C00006D15748006A40F001005549086227E0ED
:1023D000E06858B95248006A20F00100504908628C
:1023E0000846006A20F00400086219E0E068052849
:1023F0000BD14B48006A40F0040049490862084686
:10240000006A40F0010008620AE04548006A20F0D6
:102410000100434908620846006A20F0040008628F
:1024200000BFE068A0B1FFF771FC054609E0FFF7C7
:102430006DFC401B41F28831884202D9032077E6C7
:1024400022E03748006A00F002000028EFD012E0D6
:10245000FFF75CFC054608E0FFF758FC401B41F223
:102460008831884201D9032062E62D48006A00F0D5
:1024700002000028F0D1012F05D12948C06920F0C1
:1024800080502749C86100BFE069C8B3244840684C
:1024900000F00C00082860D0E069022848D1002034
:1024A00020490866FFF732FC054606E0FFF72EFCE0
:1024B000401B022801D903203AE61948006800F0C1
:1024C00000700028F2D1206AB0F5803F07D114488F
:1024D000406820F40030A168084311494860D4E9FD
:1024E000080108430E49496821F4741108430C4956
:1024F000486001200B490866FFF708FC054607E025
:102500003DE0FFF703FC401B022801D903200FE642
:102510000348006800F000700028F2D02FE00000AF
:10252000001002400000424280044242007000401D
:10253000002014490866FFF7E9FB054606E0FFF7AF
:10254000E5FB401B022801D90320F1E50E48006895
:1025500000F000700028F2D111E0E069012800D1FC
:10256000E6E50948466806F48031206A814204D1D4
:1025700006F47011606A814201D00120D8E5002084
:10258000D6E50000000042420010024070B504464B
:102590002546681EB0F1807F01D301200FE0681E40
:1025A0004FF0E02148610F214FF0FF3002F074F846
:1025B00000204FF0E021886107200861002070BDF5
:1025C00030B502460B4600BF92F83C00012801D10D
:1025D000022030BD012082F83C0000BF022082F8BA
:1025E0003D00106844681068816824F07004186821
:1025F000044310684460104D1068A8420BD0106866
:10260000B0F1804F07D00D4D1068A84203D00C4D9B
:102610001068A84205D121F0800158680143106874
:102620008160012082F83D0000BF002082F83C005C
:1026300000BF00BFCDE70000002C014000040040B7
:102640000008004010B586B00446002002900390B8
:10265000049005900E492068884216D100BF0D48AD
:10266000806940F008000B4988610846806900F0E5
:102670000800019000BF00BF48150290022003909F
:10268000059002A90448FFF7A3F906B010BD0000A9
:102690000008004000100240000C014070B50446E4
:1026A0000D46164600BF94F83C00012801D10220D7
:1026B00070BD012084F83C0000BF36B1042E1BD051
:1026C000082E31D00C2E5ED145E02946206801F05D
:1026D000E7FB2068806940F0080021688861206875
:1026E000806920F004002168886120688069296978
:1026F00008432168886147E02946206801F000FC12
:102700002068806940F400602168886120688069E1
:1027100020F480602168886120688069296940EA26
:102720000120216888612FE02946206801F01CFC07
:102730002068C06940F008002168C8612068C0694D
:1027400020F004002168C8612068C0692969084335
:102750002168C86118E02946206801F039FC20682A
:10276000C06940F400602168C8612068C06920F435
:1027700080602168C8612068C069296940EA012039
:102780002168C86100E000BF00BF00BF002084F8DE
:102790003C0000BF00BF8BE710B504460CB9012018
:1027A00010BD94F83D0028B9002084F83C00204674
:1027B00000F026F8022084F83D00211D206801F079
:1027C00023FB012084F8460000BF84F83E0001216D
:1027D0003F200155402001554120015500BF00BF59
:1027E000012084F842004320015544200155452032
:1027F000015500BF012084F83D000020D0E7000013
:1028000008B5094A016891420DD100BF0749C9695D
:1028100041F00401054AD1611146C96901F0040182
:10282000009100BF00BF08BD00080040001002403A
:1028300070B504460D4615B994F83E000BE0042D22
:1028400002D13F20005D06E0082D02D14020005D4E
:1028500001E04120005D012801D0012070BD1DB9BB
:10286000022084F83E000EE0042D03D102213F2017
:10287000015508E0082D03D102214020015502E056
:1028800002214120015501222946206801F0F6FA73
:1028900019492068884201D1012000E0002028B1B8
:1028A0002068406C40F40040216848641249206868
:1028B00088420BD02068B0F1804F07D00F492068C4
:1028C000884203D00E49206888420CD12068806875
:1028D00000F00706062E0CD02068006840F00100CA
:1028E0002168086005E02068006840F00100216868
:1028F00008600020B2E70000002C01400004004006
:10290000000800407047704710B504462068C06852
:1029100020F490702168C8602068406920F00100B0
:1029200021684861206B012805D12068C06820F02B
:1029300010002168C8602068406900F04000E8B1DC
:102940002068406920F0400021684861A06B50B1C8
:102950001048A16B4863A06BFEF7FCFEC0B1A06BF2
:10296000416B884714E00020E085202084F83E0079
:10297000002020632046FFF7C6FF09E00020E08525
:10298000202084F83E00002020632046FFF7BBFF94
:10299000002010BD2D400008704700002DE9F84FC1
:1029A0000446206805682068C668206847694FF0BB
:1029B0000009CA4605F00F09B9F1000F0AD105F068
:1029C000200038B106F0200020B1204601F067FB5E
:1029D000BDE8F88FB9F1000F71D007F0010018B908
:1029E00006F4907000286AD005F0010030B106F4BA
:1029F000807018B1206C40F00100206405F00400E4
:102A000030B107F0010018B1206C40F002002064E2
:102A100005F0020030B107F0010018B1206C40F061
:102A20000400206405F0080048B106F0200010B949
:102A300007F0010018B1206C40F008002064206C01
:102A400068B305F0200028B106F0200010B1204640
:102A500001F025FB20684069C0F3801A206C00F06B
:102A6000080010B9BAF1000F22D0204601F0ECFAAC
:102A70002068406900F04000B0B12068406920F053
:102A8000400021684861A06B50B15648A16B486373
:102A9000A06BFEF75FFE10B1A06B416B88470CE0A6
:102AA0002046FFF779FF08E02046FFF775FF04E0B6
:102AB0002046FFF771FF0020206489E7FFE7206BC5
:102AC000012878D105F01000002874D006F010001D
:102AD000002870D000BF002000902068006800909F
:102AE00020684068009000BF00BF2068406900F087
:102AF0004000C0B3A06B006840681FFA80F8B8F1CE
:102B0000000F2FD0A08D40452CDDA4F82E80A06BA7
:102B1000806920281FD02068C06820F48070216858
:102B2000C8602068406920F0010021684861206881
:102B3000406920F0400021684861202084F83E0070
:102B4000002020632068C06820F010002168C86061
:102B5000A06BFEF7D4FDA08DE28D801A81B22046D5
:102B6000FFF7D0FE34E7FFE7A08DE18D401A1FFA92
:102B700080F8E08DE8B1B8F1000F1AD02068C06885
:102B800020F490702168C8602068406920F001003E
:102B900021684861202084F83E00002020632068DE
:102BA000C06820F010002168C86041462046FFF749
:102BB000A9FE0DE7FFE705F0800030B106F08000C8
:102BC00018B1204601F085FB02E705F0400030B166
:102BD00006F0400018B1204601F051FAF8E600BFB7
:102BE000F6E600001940000810B504460CB90120B3
:102BF00010BDA06900B100E000BF94F83D0028B905
:102C0000002084F83C00204600F028F8242084F8B6
:102C10003D002068C06820F400502168C86020464C
:102C200001F0B0FA2068006920F490402168086142
:102C30002068406920F02A00216848612068C06847
:102C400040F400502168C86000202064202084F8EF
:102C50003D0084F83E000020CAE7000010B586B0B1
:102C60000446002002900390049005905F4920687C
:102C7000884237D100BF5E48806940F480405C499B
:102C800088610846806900F48040019000BF00BF61
:102C900000BF0846806940F00400886108468069EA
:102CA00000F00400019000BF00BF48150290022010
:102CB00003900320059002A94E48FEF789FE4FF4C9
:102CC0008060029000200390049002A94948FEF71A
:102CD0007FFE032211462520FFF79EF82520FFF7EF
:102CE0008BF881E044492068884236D100BF4048D3
:102CF000C06940F400303E49C8610846C06900F42C
:102D00000030019000BF00BF00BF0846806940F05E
:102D1000040088610846806900F00400019000BF4B
:102D200000BF04200290022003900320059002A916
:102D30003048FEF74DFE08200290002003900490DA
:102D400002A92C48FEF744FE002211462620FFF778
:102D500063F82620FFF750F846E0284920688842AB
:102D600042D100BF2248C06940F480202049C86198
:102D70000846C06900F48020019000BF00BF00BF7A
:102D80000846806940F0080088610846806900F0C4
:102D90000800019000BF00BF0815029002200390B8
:102DA0000320059002A91648FEF712FE4FF40060BA
:102DB000029000200390049002A91148FEF708FE3B
:102DC000002211462720FFF727F82720FFF714F8E5
:102DD0002068C06840F020002168C8602068C06892
:102DE00040F010002168C86006B010BD00380140F6
:102DF000001002400008014000440040004800402C
:102E0000000C01402DE9F84F04460E46174699463E
:102E10004FF0000A94F83E0020285FD106B117B9A0
:102E20000120BDE8F88F00BF94F83C00012801D1D3
:102E30000220F6E7012084F83C0000BF0020206457
:102E4000222084F83E0000202063FEF75FFF8246C8
:102E5000A785E785A068B0F5805F04D1206910B927
:102E60000025B04602E035464FF0000800BF0020C4
:102E700084F83C0000BF29E0534600222021204670
:102E8000CDF8009001F055FA08B10320C9E745B923
:102E900020684068C0F30800A8F8000008F10208A4
:102EA00011E0A068B0F5805F03D0A06828B9206960
:102EB00018B920684068287004E02068406800F075
:102EC0007F0028706D1CE08D401EE085E08D00289D
:102ED000D2D1202084F83E000020A2E70220A0E703
:102EE00070B504460D46164694F83E00202816D1CB
:102EF00005B10EB9012070BD00BF94F83C00012857
:102F000001D10220F7E7012084F83C0000BF002037
:102F1000206332462946204601F0B2F9EBE7022051
:102F2000E9E7000038B504461C492068884233D0E0
:102F30001B49206888422FD14FF6FF73022219A146
:102F4000194800F037F800BF0020009016480068CC
:102F500000680090144800684068009000BF00BFFF
:102F600012480078312802D101201149087000BFB1
:102F700001220E490C48FFF7B3FF0028F8D000BF2C
:102F8000002000900848006800680090064800682B
:102F90004068009000BF00BF38BD0000003801400D
:102FA000004400404F4B0000240400201200002089
:102FB000040000202DE9F84F04460E4617469946B6
:102FC0004FF0000A94F83D0020285AD106B117B9F5
:102FD0000120BDE8F88F00BF94F83C00012801D122
:102FE0000220F6E7012084F83C0000BF00202064A6
:102FF000212084F83D00FEF789FE8246A784E784FD
:10300000A068B0F5805F04D1206910B90025B046F2
:1030100002E035464FF0000800BF002084F83C0075
:1030200000BF1BE05346002280212046CDF80090CF
:1030300001F07FF908B10320CBE745B9B8F80000EB
:10304000C0F308002168486008F1020803E028780E
:10305000216848606D1CE08C401EE084E08C0028F4
:10306000E0D15346002240212046CDF8009001F0E7
:1030700060F908B10320ACE7202084F83D0000206F
:10308000A7E70220A5E7704700BFFEE77CB505462D
:10309000EF208DF8000001208DF80100184800682D
:1030A000000E8DF8020016480068000C8DF8030031
:1030B00013480088000A8DF80400114800788DF844
:1030C000050007208DF8060000208DF8070010E0AD
:1030D0000120FEF797FB0B48007850B1002009490A
:1030E000087069460848FDF757F804460CB12046B9
:1030F0007CBD681E80B2051EEAD100BFF8E7000063
:1031000018000020130000202401002000B585B025
:103110000020019002900390049000BF0C48806949
:1031200040F008000A4988610846806900F00800FC
:10313000009000BF00BF4FF470400190002002904B
:103140000120039001A90348FEF742FC05B000BD31
:1031500000100240000C014010B500244FF48051D3
:103160002F48FEF7C5FD88B91420FEF74BFB4FF43E
:1031700080512B48FEF7BCFD40B900BF4FF4805191
:103180002748FEF7B5FD0028F8D001244FF4005180
:103190002348FEF7ADFD88B91420FEF733FB4FF44A
:1031A00000511F48FEF7A4FD40B900BF4FF4005185
:1031B0001B48FEF79DFD0028F8D002244FF4804103
:1031C0001748FEF795FD88B91420FEF71BFB4FF456
:1031D00080411348FEF78CFD40B900BF4FF4804199
:1031E0000F48FEF785FD0028F8D003244FF4004176
:1031F0000B48FEF77DFD88B91420FEF703FB4FF462
:1032000000410748FEF774FD40B900BF4FF400418C
:103210000348FEF76DFD0028F8D00424204610BDB9
:10322000000C014010B50446412C25D10821084668
:10323000FDF7A4FE3D21112001F07AF98621172027
:1032400001F076F97F21262001F072F91E212D2050
:1032500001F06EF900212C2001F06AF98D212A205D
:1032600001F066F93E212B2001F062F9012002F005
:10327000D1F800F077FA01E0FF2010BD0020FCE754
:1032800008B500BF1348806940F0200011498861EB
:103290000846806900F02000009000BF00BF00BF1A
:1032A0000846806940F0040088610846806900F0A3
:1032B0000400009000BF00BF00BF0846806940F0D6
:1032C000080088610846806900F00800009000BF8F
:1032D00000BF08BD0010024000B589B00020079073
:1032E00008901C216846FCF74CFF184818490860F4
:1032F00040F2CF20486000211548816040F2CF7134
:10330000C160002101618161FFF746FA08B1FDF754
:10331000A3FF00200790089007A90D48FFF750F978
:1033200008B1FDF799FF6020009000200190029005
:1033300004900C2269460648FFF7B0F908B1FDF782
:103340008BFF0348FFF77EF909B000BD000800407D
:10335000B80D002010B50F480F4908604FF46140C8
:10336000486000210C488160C16001610C2141610D
:1033700000218161C161FFF737FC08B1FDF76CFFE7
:103380004FF4FA7205490448FFF7AAFD08B1FDF7AA
:1033900063FF10BD00380140E0030020240100203D
:1033A00010B50D480D4908604FF4E1304860002128
:1033B0000A488160C16001610C2141610021816185
:1033C000C161FFF711FC08B1FDF746FF0122044976
:1033D0000248FFF785FD10BD004400402404002092
:1033E0001200002010B50B480B4908604FF4E13083
:1033F0004860002108488160C16001610C21416181
:1034000000218161C161FFF7EFFB08B1FDF724FFE7
:1034100010BD0000004800406804002000BFFEE727
:10342000704770B500240EE00021204600F0CFF870
:10343000002504E0002000F07FF9681CC5B2802D53
:10344000F8DB601CC4B2082CEEDB70BD00B585B0A3
:103450000020019002900390049000BF0F48806903
:1034600040F008000D4988610846806900F00800B6
:10347000009000BF00BF0122C0210948FEF740FCB8
:10348000C0200190012002900020039003200490AE
:1034900001A90348FEF79CFA05B000BD00100240E8
:1034A000000C014070B5054600240DE0802121414B
:1034B00001EA050000F01EF9012000F009F90020E2
:1034C00000F006F9601CC4B2082CEFDB012000F00C
:1034D000FFF8002000F0FCF870BD10B5012000F0EE
:1034E00009F9012000F0F4F8002000F003F90020B1
:1034F00000F0EEF810BD10B5002000F0FBF8012040
:1035000000F0E6F8012000F0F5F810BD70B50024D9
:1035100006E0002500E06D1CB5F57A7FFBD3641C46
:10352000B4F57A7FF5D3FFF791FFAE2000F0F4F801
:10353000D52000F0F1F8802000F0EEF8A82000F08F
:10354000EBF83F2000F0E8F8D32000F0E5F8002089
:1035500000F0E2F8402000F0DFF8A12000F0DCF8F5
:10356000C82000F0D9F8DA2000F0D6F8122000F0D8
:10357000D3F8812000F0D0F8CF2000F0CDF8D9208A
:1035800000F0CAF8F12000F0C7F8DB2000F0C4F822
:10359000302000F0C1F8A42000F0BEF8A62000F012
:1035A000BBF88D2000F0B8F8142000F0B5F8AF207B
:1035B00000F0B2F8FFF735FF70BD10B502460120EC
:1035C00000E050430B1EA1F10101FAD110BD70B50E
:1035D00005460C4645F0B00000F09EF8102141EA87
:1035E000141000F099F804F00F0000F095F870BD89
:1035F0002DE9F04105460E461746721ED206110E01
:103600006A1E5206100EFFF7E2FF002409E0A7F140
:103610002001134A02EB0111085D00F08DF8601CD7
:10362000C4B2082CF3DB721ED206110E6A1E0123EF
:1036300003EB4202D0B2FFF7CAFF00240BE0A7F170
:103640002001074A02EB011204F10801505C00F06E
:1036500073F8601CC4B2082CF1DBBDE8F0810000F7
:103660008C8500082DE9F04780460E4617461D461A
:10367000002415E0281B411E0A20FFF79EFFB7FB20
:10368000F0F00A21B0FBF1F201FB120000F1300969
:103690003019C1B24A464046FFF7AAFF601CC4B2C7
:1036A000AC42E7DBBDE8F0872DE9F04107460E4666
:1036B0001546002407E02A5D3019C1B23846FFF7ED
:1036C00097FF601CC4B2285D0028F4D1BDE8F081EA
:1036D00010B504462CB1012240210548FEF710FB2D
:1036E00004E0002240210248FEF70AFB10BD000062
:1036F000000C014010B504462CB101228021054880
:10370000FEF7FEFA04E0002280210248FEF7F8FAF4
:1037100010BD0000000C014010B50446FFF7DDFEAF
:103720007820FFF7BFFE0020FFF7BCFE2046FFF722
:10373000B9FEFFF7E0FE10BD10B50446FFF7CDFE61
:103740007820FFF7AFFE4020FFF7ACFE2046FFF7E2
:10375000A9FEFFF7D0FE10BD10B503211420FDF720
:103760000DFC10BD10B5142000F0D2F9044604F091
:10377000030018B90321142000F0D4FA10BDF0B5ED
:1037800087B00546002708210846FDF7F7FB002112
:103790000D2000F0CDFE80210E20FDF7EFFB9320E1
:1037A0008DF8040020208DF8050006A801AB022248
:1037B00001A900900C2000F01AF8064686B90024F2
:1037C00007E001A8005D285501A8005D4740601C86
:1037D000C4B2042CF5DB01A8005DB84200D0FE267F
:1037E00080210E2000F09EFA304607B0F0BD2DE992
:1037F000FE4F0646884691469A46DDF830B0FE20D8
:1038000002900020019000900C2E06D00E2E09D1BF
:10381000122001901020009005E0772001903020C8
:10382000009000E000BF00BF019840F0800102203E
:1038300000F07EFE80210420FDF7A0FB0021012086
:1038400000F076FE80210A2000F06CFA002505E0E9
:1038500018F80510092000F06BFE6D1C4D45F7D3DC
:103860003146012000F064FE0C2E03D180210D2092
:1038700000F058FA4FF4FA6500BF042000F048F950
:1038800004466D1E35B104F0010018B900982040BF
:103890000028F2D080210D20FDF770FB95B30620A3
:1038A00000F036F900F01B0068BB00200290019880
:1038B000204000F0010008B1FF2002900C2E24D11E
:1038C0000A2000F025F904460C2000F021F900F050
:1038D00007072FB1601E07EBC000CBF8000002E025
:1038E000E000CBF8000004B90124122C00DD122402
:1038F000002505E0092000F00BF90AF805006D1C11
:10390000A542F7D301E0FE20029080210C2000F0B8
:1039100009FA0021012000F00BFE0298BDE8FE8F9D
:1039200000B585B00020019002900390049000BF84
:103930002F48806940F020002D4988610846806941
:1039400000F02000009000BF00BF00BF0846806963
:1039500040F0040088610846806900F0040000908F
:1039600000BF00BF00BF0846806940F008008861C2
:103970000846806900F00800009000BF00BF0022E8
:10398000C0211C48FEF7BCF9012203211A48FEF7AA
:10399000B7F92020019000200290039001A915485A
:1039A000FEF716F8402001900120029000200390BD
:1039B0000220049001A90F48FEF70AF88020019028
:1039C00001200290002003900320049001A90948DF
:1039D000FDF7FEFF032001900120029000200390DC
:1039E0000320049001A90448FDF7F2FF05B000BDD3
:1039F0000010024000080140000C014070B588B082
:103A000005460C4608210846FDF7B8FA07210D20A7
:103A100000F08EFD0321142000F084F98DF8085089
:103A200007A802AB012202A900900C20FFF7DFFEDD
:103A300006464EB90798102806D19DF80800207058
:103A40009DF80900607000E0FE26304608B070BDA9
:103A500010B5012240211B48FEF752F9012001F068
:103A6000D9FC002240211748FEF74AF9012001F055
:103A7000D1FC012240211348FEF742F90A2001F04F
:103A8000C9FC022000F044F80F21012000F050FD95
:103A90003D21112000F04CFD1E212D2000F048FD9D
:103AA00000212C2000F044FD8D212A2000F040FD53
:103AB0003E212B2000F03CFD4021152000F038FD78
:103AC000002010BD000801407047000008B50849FB
:103AD0000968C9084FF47A72B1FBF2F141430091D1
:103AE00000BF00BF00994A1E00920029F9D108BD0D
:103AF0004C00002010B5FFF713FFFFF7A9FFFFF7F9
:103B00002BFEFFF72FFE4120FFF78CFB10BD0000BE
:103B10002DE9F04106460025002201212748FEF745
:103B2000EFF87E2000EA460040F0800708241BE002
:103B3000002280212248FEF7E3F807F0800028B138
:103B4000012202211D48FEF7DBF804E000220221D9
:103B50001A48FEF7D5F8012280211948FEF7D0F85F
:103B60007806070E601EC4B2002CE1DC082415E0C4
:103B7000002280211248FEF7C3F86806050E0122D4
:103B800080210F48FEF7BCF820210D48FEF7B0F861
:103B9000012801D145F00105601EC4B2002CE7DC0C
:103BA000012211460548FEF7ABF8012280210448A6
:103BB000FEF7A6F82846BDE8F0810000000C0140A1
:103BC0000008014008B502226946294804F09BFB21
:103BD000BDF80000001227490870BDF800004870C9
:103BE000BDF8020000128870BDF80200C870022201
:103BF00069461F48001D04F086FBBDF80000001256
:103C00001D490870BDF800004870BDF802000012A0
:103C10008870BDF80200C870022269461448083056
:103C200004F071FBBDF80000001214490870BDF8E3
:103C300000004870BDF8020000128870BDF8020054
:103C4000C870022269460A480C3004F05CFBBDF8DB
:103C5000000000120A490870BDF800004870BDF865
:103C6000020000128870BDF80200C87008BD000094
:103C70000090000824000020280000202C000020D4
:103C8000300000207047000010B50B490968080E8D
:103C9000FDF782F908480068C0F30740FDF77CF99A
:103CA00005480088C0F30720FDF776F90249087837
:103CB000FDF772F910BD00001800002010B5044691
:103CC0002012FDF769F9E0B2FDF766F910BD10B5F5
:103CD00004462046FDF760F910BD10B5EF20FDF752
:103CE0005BF90120FDF758F910BD10B50446C4F387
:103CF0000720FDF751F9E0B2FDF74EF910BD10B500
:103D000004462046FDF748F910BD000010B50C210F
:103D10000348FEF78DFD322001490968086410BD93
:103D2000B80D002070B505460C4600262846FFF762
:103D3000EFFE064646EA0401284600F0F9FB70BD96
:103D400010B5FDF7E9FF10BD00B58FB0282105A81B
:103D5000FCF717FA14216846FCF713FA01200590C6
:103D600000040690002007900120099002200C908A
:103D7000C1030D914FF4E0110E9105A8FEF7D4F99F
:103D800008B1FDF769FA0F20009002200190002091
:103D900002904FF480600390002004900221684656
:103DA000FEF78CF808B1FDF757FA0FB000BD000020
:103DB0001148006840F001000F490860084640685B
:103DC0000E4908400C494860084600680C49084004
:103DD000094908600846006820F480200860084609
:103DE000406820F4FE0048604FF41F008860C8035C
:103DF0000449086070470000001002400000FFF80E
:103E0000FFFFF6FE08ED00E010B50268184B98427F
:103E100008D0B0F1804F05D0164B984202D0164B17
:103E2000984203D122F070024B681A43104B98421B
:103E300008D0B0F1804F05D00E4B984202D00E4B07
:103E4000984203D122F44072CB681A4322F08003D7
:103E50004C6943EA040202608B68C3620B688362A8
:103E6000034B984201D10B6903630123436110BDE9
:103E7000002C0140000400400008004030B501F073
:103E80001F05012404FA05F3046A9C430462046AD2
:103E900001F01F0502FA05F52C43046230BD000055
:103EA00030B5056A25F001050562026A4368846938
:103EB00024F0700424F003040D682C4322F0020265
:103EC0008D682A430D4DA84206D100BF22F008029A
:103ED000CD682A4322F00402084DA84207D123F4FA
:103EE000807323F400734D692B438D692B4343602A
:103EF00084614D684563026230BD0000002C0140C2
:103F000030B5056A25F010050562026A43688469C8
:103F100024F4E04424F440740D6844EA052422F0BB
:103F200020028D6842EA05120E4DA84207D100BF5B
:103F300022F08002CD6842EA051222F04002094DCB
:103F4000A84209D123F4806323F400634D6943EA56
:103F500085038D6943EA8503436084614D68856309
:103F6000026230BD002C014030B5056A25F4807531
:103F70000562026A4368C46924F0700424F00304F3
:103F80000D682C4322F400728D6842EA05220F4D21
:103F9000A84207D100BF22F40062CD6842EA0522A0
:103FA00022F48062094DA84209D123F4805323F4FE
:103FB00000534D6943EA05138D6943EA05134360D5
:103FC000C4614D68C563026230BD0000002C014031
:103FD00030B5056A25F480550562036A4468C269F4
:103FE00022F4E04222F440720D6842EA052223F4F2
:103FF00000538D6843EA0533064DA84204D124F4EA
:1040000080444D6944EA85144460C2614D6805648A
:10401000036230BD002C014070B505466C6A00207B
:10402000E085E0842046FEF7B7FC70BD70B505461C
:104030006C6A0020E085202084F83E000020206388
:104040002046FEF760FC70BD0168C96821F49071DC
:104050000268D1600168496921F00101026851617B
:10406000016B012905D10168C96821F010010268BE
:10407000D160202180F83E1000210163704710B507
:1040800004462068C06820F040002168C8602020F5
:1040900084F83D002046FEF7F6FF002010BDF8B57D
:1040A000044694F83E00222869D1A068B0F5805FEC
:1040B0000CD1206950B90025A66A20684068C0F379
:1040C00008003080A06A801CA06215E0A56A002666
:1040D000A068B0F5805F03D0A06828B9206918B93E
:1040E00020684068287004E02068406800F07F0085
:1040F0002870A06A401CA062E08D401E80B2E0855E
:10410000A8BB2068C06820F020002168C860206833
:10411000C06820F480702168C8602068406920F081
:10412000010021684861202084F83E00206B0128AE
:104130001ED1002020632068C06820F01000216894
:10414000C8602068006800F0100010280AD100BF85
:10415000002000902068006800902068406800906F
:1041600000BF00BFA18D2046FEF7CCFB03E004E0BA
:104170002046FEF7D7FE0020F8BD0020FCE7022015
:10418000FAE7000070B504462168096921F440513E
:10419000E2681143226811612269A16811436269D2
:1041A00041EA02052168C96841F20C629143294342
:1041B0002268D1602168496921F44071A2691143E4
:1041C000226851612D4A2168914202D1FDF752FFC8
:1041D00001E0FDF73FFF00EBC00101EB0011626859
:1041E0009200B1FBF2F100EBC00202EB0012636837
:1041F0009B00B2FBF3F26423B2FBF3F202EBC203C7
:1042000003EB0212A1EB8201322202EB01116422C4
:10421000B1FBF2F101F0F00100EBC00202EB001281
:1042200063689B00B2FBF3F26423B2FBF3F201EB91
:10423000021200EBC00101EB001163689B00B1FBAF
:10424000F3F100EBC00303EB00136668B600B3FBA9
:10425000F6F36426B3FBF6F303EBC30606EB031396
:10426000A1EB8301322303EB01116423B1FBF3F1D2
:1042700001F00F0111442268916070BD00380140C7
:1042800010B5034699629A85DA85002018642220C9
:1042900083F83E0000BF002083F83C0000BF186890
:1042A000C06840F480701C68E0601868406940F0A5
:1042B00001001C6860611868C06840F020001C683C
:1042C000E0601868C06840F010001C68E0600020E2
:1042D00010BD014691F83D00212828D18868B0F52D
:1042E000805F0BD1086948B90A6A1088C0F30800DA
:1042F0000B685860086A801C086205E00B6A581C4D
:10430000086218780B685860C88C401E80B2C88458
:1043100058B90868C06820F080000B68D860086849
:10432000C06840F040000B68D86000207047022051
:10433000FCE72DE9F04104460D4617469846069ED7
:1043400021E0701CF8B12EB1FDF7E0FCA0EB0800F5
:10435000B04218D92068C06820F4D0702168C860C5
:104360002068406920F0010021684861202084F81D
:104370003D0084F83E0000BF002084F83C0000BFF0
:104380000320BDE8F081206800682840A84201D1E0
:10439000012000E00020B842D3D00020F1E7000067
:1043A00010B50648006804680448FEF7F7FA0448A8
:1043B000204010B1014800F095F810BDE003002046
:1043C0001000001010B50248FEF7E8FA10BD00001A
:1043D000240400201CB54048FEF7E0FA3E4800687F
:1043E0000068C0F3C00090B100BF002000903A48C0
:1043F000006800680090384800684068009000BF7E
:1044000000BF35480068006833480068406832489B
:1044100000680068C0F3401010B34FF0FF33012272
:1044200001A92D48FEF7EEFC2C48B0F80001C0F3BE
:104430000E00FF2815DA9DF804002849B1F8001194
:10444000C1F30E01254A50541046B0F80001401C3B
:104450001146B1F8001160F30E011046A0F80011EA
:104460001BE01E48B0F800016FF30E001B49A1F8D5
:1044700000019DF80400B1F80011C1F30E01174AC4
:1044800050541046B0F80001401C1146B1F800111C
:1044900060F30E011046A0F800110F480068006894
:1044A000C0F30010B0B10D48B0F8000120F4004096
:1044B00000F500400949A1F8000100BF002000906C
:1044C0000548006800680090034800684068009054
:1044D00000BF00BF1CBD000068040020AC04002029
:1044E00000BFFEE738B5044600BF002000900D482D
:1044F0000068006800900B4800684068009000BFAA
:1045000000BF0848C08DC0F5FA7007490870204602
:10451000FEF7FAF94FF4FA7204490248FEF7E0FC9C
:1045200038BD0000E003002013000020240100201B
:104530002DE9F04106460D46002280212B48FDF76B
:10454000DFFB002201212A48FDF7DAFB7E2000EA8A
:10455000460708241BE007F0800028B10122022151
:104560002348FDF7CDFB04E0002202212048FDF79F
:10457000C7FB012280211D48FDF7C2FB7806070E0C
:10458000002280211948FDF7BBFB601EC4B2002C3D
:10459000E1DC08241BE005F0800028B101220221A3
:1045A0001348FDF7ADFB04E0002202211048FDF79F
:1045B000A7FB012280210D48FDF7A2FB6806050E2E
:1045C000002280210948FDF79BFB601EC4B2002C2D
:1045D000E1DC012211460648FDF792FB0122802111
:1045E0000248FDF78DFBBDE8F081000000080140A6
:1045F000000C01400FB4054B10B503A9044A029802
:1046000000F0ACF910BC5DF814FB00007D5500080B
:104610000C0000200FB4084B10B504A902AA03989F
:1046200000F09CF9044602A9002000F02EFD20466F
:1046300010BC5DF814FB00008B50000837B5144621
:104640000846064B6A46214600F088F9044669464A
:10465000002000F01AFD20463EBD00008B500008EF
:10466000490050EAC12018BF04204A0D18BF40F08D
:10467000010040F2FF72B2EB515F08BF40F0020050
:10468000012808BF0520704702480068C0F30220D7
:10469000704700000CED00E010B5002804DB0A07AD
:1046A000130E054A135406E00A07140E034A00F0DD
:1046B0000F031B1FD45410BD00E400E018ED00E010
:1046C0002DE9F0414F1E00EBC7010446D1E900017E
:1046D00015461E4637F006020DD02A463346FBF734
:1046E00070FF7F1E04EBC703D3E90023FBF7C2FE74
:1046F00037F00602F1D1022F25D0042F13D0062F58
:1047000018BFBDE8F0812A463346FBF75AFFD4E9CB
:104710000A23FBF7AFFE2A463346FBF752FFD4E9E4
:104720000823FBF7A7FE2A463346FBF74AFFD4E9E6
:104730000623FBF79FFE2A463346FBF742FFD4E9E8
:104740000423FBF797FE2A463346FBF73AFFD4E9EA
:104750000223FBF78FFE2A463346FBF732FFD4E9EC
:104760000023BDE8F041FBF785BE000000221346A0
:1047700010460149FCF70BB90000F03FFBF77ABE89
:104780000022134610461146FCF701B940F20132EF
:1047900000204FF0E041FCF769B90000024A002018
:1047A0001107FCF763B9000001FDFFFF02E008C834
:1047B000121F08C1002AFAD170477047002001E09B
:1047C00001C1121F002AFBD1704700000149086097
:1047D00070470000580000202DE9FF5F82B00021E3
:1047E000DDE90430020DDDF840B0034318D044F693
:1047F0001050A2F2FF3242431514119801281FD025
:10480000A5EB0B00401C5FEA000A4FF000064E4F7C
:10481000DFF83891B046504615D5CAF1000413E0D0
:10482000119801244AA3012801D16FEA0B010298D3
:10483000119AC0E90031C0E9024206B0BDE8F09F1C
:10484000CBF10000DFE704460021404A491842EB63
:104850000450CDE9001012E0E00707D032463B4695
:1048600040464946FBF7ADFE8046894632463B4608
:1048700010461946FBF7A5FE06460F466410002CAD
:10488000EAD1DDE90401DDE90023BAF1000F06DA1F
:10489000FBF797FE42464B46FBF793FE05E0FCF71D
:1048A00076F842464B46FCF772F804460E46002264
:1048B000284BFBF74DFF03D84FF0FF30014607E0D0
:1048C0000022254B20463146FBF7D4FDFCF7E5F8E6
:1048D000102409E0002C0ADB0A220023FBF766FF04
:1048E000039B30321A55641E50EA0102F2D1641C57
:1048F000039AC4F111031444119A012A03D001222E
:1049000008430DD10AE0084304D000204FF0110BFA
:10491000119072E7A3EB0B056D1E0DE05B4504DD06
:104920004FF0000205F1010504E003DA4FF0000248
:10493000A5F10105002AECD002981199C0E90231D5
:10494000C0E9004579E70000000014400000F03F96
:10495000300000000000F0430000E03F2DE9FF4F71
:1049600095B09B468946064600250FE2252877D15B
:1049700000242746F84A0121059400E0044316F874
:10498000013F203B01FA03F01042F7D130782A288A
:1049900011D06FF02F033078A0F13002092A16D819
:1049A000059A44F0020402EB820203EB4202104437
:1049B000761C0590EFE759F8042B0592002A03DADC
:1049C000504244F40054059044F00204761C3078C0
:1049D0002E2816D116F8010F44F004042A280DD011
:1049E0006FF02F023078A0F13003092B09D807EBC4
:1049F000870302EB4303C718761CF3E759F8047BDF
:104A0000761C30786C280FD006DC4C2817D068282C
:104A10000DD06A2814D104E0742810D07A280FD160
:104A20000DE044F400140AE044F4801401E044F47E
:104A300040147278824202D104F58014761C761CF0
:104A4000307866280BD013DC582877D009DC002892
:104A500075D04528F6D04628F4D047281AD19DE1D4
:104A600018E0632835D0642879D0652812D195E103
:104A7000702873D008DC6728F1D069286FD06E28C1
:104A80000DD06F2806D1B5E073282CD0752875D0CD
:104A9000782874D05A46179990476D1C75E1C4F375
:104AA0000250022809D003280DD0D9F8001004289C
:104AB0000DD00D6009F1040967E1D9F80010EA177B
:104AC000C1E90052F6E7D9F800100D80F2E70D7049
:104AD000F0E719F8041B8DF8001000208DF8010094
:104AE000EA46012003E059F804AB4FF0FF306107BC
:104AF0004FF0000102D40DE008F101018846B942EF
:104B00000FDA8045F8DB1AF808100029F4D108E024
:104B100008F1010188468142FADB1AF808100029E1
:104B2000F6D105985B46A0EB080721463846179A50
:104B300000F094FA284400EB080507E04DE029E175
:104B40000DE01AF8010B5A4617999047B8F1010881
:104B5000F7D25B4621463846179A13E142E00A2213
:104B60000092C4F302524FF0000A022A08D059F80A
:104B700004CB032A4FEAEC710AD00DE029E02AE0C9
:104B800009F1070121F00702F2E802C1914609E0AC
:104B90000FFA8CFC4FEAEC71042A03D14FFA8CFC1B
:104BA0004FEAEC71002907DA0A460021DCF1000C1B
:104BB00061EB02012D2202E0220504D52B228DF8A3
:104BC0000420012203E0E20701D02022F7E790460B
:104BD00059E00A2102E010220DE010214FF0000AF6
:104BE00000910BE010224FF0000A44F00404082763
:104BF000009203E008224FF0000A0092C4F3025230
:104C0000022A05D059F804CB0021032A08D009E074
:104C100009F1070121F00702F2E802C1914605E01F
:104C20001FFA8CFC042A01D10CF0FF0C4FF0000895
:104C3000220728D5702806D0009B83F0100353EA82
:104C40000A0305D00EE040228DF80420012208E07E
:104C50005CEA010206D030228DF804208DF80500B0
:104C600002229046009B83F0080353EA0A030AD10C
:104C70005CEA010201D1620705D530228DF80420DB
:104C80004FF001087F1E582804D034A003900EA8CE
:104C900002900DE036A0F9E753466046009AFBF714
:104CA00085FD84460398825C0298401E0290027043
:104CB0005CEA0100F0D1029806A9081A00F1200A66
:104CC000600702D524F4803400E00127574502DD57
:104CD000A7EB0A0000E0002000EB0A010090059815
:104CE0004144401A0590E00306D45B462146179ADA
:104CF000059800F0B3F90544002706E001A85A46DC
:104D0000C05D179990476D1C7F1C4745F6DBE0039B
:104D10000CD55B462146179A059800F09FF905448B
:104D200004E030205A46179990476D1C0099481EA0
:104D300000900029F5DC08E0029802995A460078B4
:104D4000491C0291179990476D1CBAF10001AAF114
:104D5000010AF1DC65E1000009280100303132333D
:104D600034353637383961626364656600000000A7
:104D70003031323334353637383941424344454691
:104D80000000000000F058F90544761C3078002837
:104D90007FF4ECAD19B02846BDE8F08F620700D46F
:104DA000062709F1070222F0070CFCE80223E1467E
:104DB00003F000485FEA080C02D00FF2702C0DE0FF
:104DC0005FEA045C02D50FF2682C07E05FEAC47C5E
:104DD00002D00FF2602C01E0AFF2700C4FF0FF3800
:104DE00023F00043CDF850C065280CD006DC4528E0
:104DF00009D046281DD047283DD13DE0662818D06F
:104E000067287ED138E00021112F01DB112000E05E
:104E1000781CCDE9000106A90EA8FFF7DDFCDDE94D
:104E20000F010E9A03910021009207F1010A0491EB
:104E30004DE04FF000400097CDE9011006A90EA803
:104E4000FFF7CAFCDDE90F0203920E9B11990022C5
:104E5000DDF80CA00093049211B9791C00EB010A53
:104E6000B7EB0A0004D4C0F1FF3007F1010A049047
:104E7000AAEB0700019044E0012F00DA012700218E
:104E8000112F01DD112000E03846CDE9000106A90F
:104E90000EA8FFF7A1FCDDE90F010E9A0391002196
:104EA00004910092BA4621070CD40399514500DAC7
:104EB0008A46BAF1010F05DD009AAAF10101515CA1
:104EC000302908D0B84202DA10F1040F06DA0121C5
:104ED000CDE9011015E0AAF10101E9E7002805DCA0
:104EE000049901440491AAEB000102E0411C5145E0
:104EF00000DD8A460499401A401C01904FF00040A2
:104F00000290200704D40198504501DBCDF80480BD
:104F100000208DF84F0002980DF14F07B0F1004FBF
:104F200025D02B200E9002984FF0020800280CDAB2
:104F3000404202902D200E9007E00A210298FBF7D4
:104F40001FFC3031029007F8011DB8F10001A8F1F3
:104F50000108F2DC02980028EFD1791E0E98087043
:104F6000307800F0200040F0450007F8020D12A84C
:104F7000C01B00F107081498007800B1012000EB75
:104F80000A01019801EBE07105984144401A401E66
:104F90000590E00306D45B462146179A059800F079
:104FA0005DF805441498007818B15A46179990474F
:104FB0006D1CE00324D55B462146179A059800F046
:104FC0004DF805441CE00498002807DBDDE90301E7
:104FD000884203DD0098405C179901E01799302062
:104FE0005A469047049805F10105401C0490019829
:104FF000401E019004D12E205A46179990476D1CEF
:10500000BAF10001AAF1010ADDDC05E017F8010B95
:105010005A46179990476D1CB8F10001A8F1010894
:10502000F4DC5B462146179A0598ABE62D0000009C
:105030002B000000200000002DE9F041044600256F
:105040001E461746880404D405E039462020B047A0
:105050006D1C641EF9D52846BDE8F0812DE9F041AC
:10506000044600251E469046C80301D5302700E0BF
:105070002027880404D505E041463846B0476D1C1A
:10508000641EF9D52846BDE8F0810A68531C0B6000
:10509000107070470FB438B505A800900A48009A00
:1050A0000499FFF7CBFA002000900748FBF790F82F
:1050B00084B24FF0FF33224603490448FDF77AFFDC
:1050C00038BC5DF814FB0000AE0500206804002029
:1050D0000948B0F800010121B1EBD03F09D100200F
:1050E0000549B1F80011C1F30E01034A50541046AE
:1050F00070470020FCE70000AC0400200748B0F82F
:1051000000016FF30E000549A1F800010846B0F850
:10511000000120F40040A1F800017047AC04002019
:1051200070B505460E46AC6806B970BD0CB9AE60E8
:1051300009E000E0246814B120680028FAD1314663
:10514000204603F087F900BFEFE7000070B5064680
:105150000D46144604B970BD206A18B10649206A8C
:1051600009688847284600F0DBF82062214630466F
:10517000FFF7D6FF00BFEEE73C00002070B5054604
:105180000E4600F053F8044644B10320E060C4E941
:10519000065628463146FBF7A4FA6061204670BDEA
:1051A00010B500F043F804460CB10620E06020463C
:1051B00010BD000070B5044622E02568A08900F407
:1051C000807020B9A06810B1A068FFF7F3FFA08934
:1051D00000F4807028B9206918B10B49206909686A
:1051E0008847A08900F4007028B9206A18B10649E0
:1051F000206A0968884720460349096888472C4681
:10520000002CDAD170BD00003C00002070B50546CE
:105210000E46AC6800E024682CB13146206A00F0EC
:1052200058F80028F7D1204670BD000010B528209E
:1052300005490968884704461CB128212046FAF729
:10524000A0FF204610BD00003800002010B5044625
:1052500000221146204600F001F810BD2DE9F0476C
:1052600080460D4616460024FFF7E0FF0746002063
:10527000124908600FB9BDE8F087404603F014F802
:1052800081464946384601F0F5FB044624B93846C4
:10529000FFF790FF0020EEE766B1204603F004F828
:1052A0000446207830B13846FFF784FF0348046095
:1052B0000020E0E705B12C603846DCE73400002030
:1052C00010B5044600231A461946204602F0ACFEEB
:1052D00010BD70B504460D462CB9AC4201D001207A
:1052E00070BD0020FCE70DB90120F9E705E020784A
:1052F00008B90020F4E7641C6D1C2078FAF722FF3F
:1053000006462878FAF71EFF8642F0D02078FAF792
:1053100019FF06462878FAF715FF301AE0E7000073
:1053200070B504462046FAF753FF451C2846064947
:1053300009688847061E00D170BD2A4621463046BE
:10534000FAF706FF3046F7E7380000202DE9F04F66
:10535000ADF6040D0E4600240025A146FFF720FF00
:105360000090FFF71DFF83463046FBF7ADF9074677
:10537000FFF704FF8246524620A15846FFF7E6FE9B
:105380005A4620A10098FFF7E1FE0098FFF798FF2A
:10539000044600BF13E0207801A948556078222810
:1053A00002D060782C2804D15C21681C054601AA33
:1053B0001154641C09F101001FFA80F96D1C20785A
:1053C0000028E8D1A4EB090401AA10490DF2044019
:1053D000FFF720F94FF4FA720DA10DF20440FBF72C
:1053E000EBFE0098FFF7E6FE1CB1204600F0D4F873
:1053F00000240DF6040DBDE8F08F0000646F6F729D
:1054000000000000706172616D730000708C000814
:105410004F4B0000002107E0002200E0521C4EF636
:1054200060239A42FAD3491C8142F5D370470000A9
:105430002DE9F04104460E460CB1206810B9002059
:10544000BDE8F081A06806446068B04203DBA16853
:1054500020680844F4E7304602F056F8074638461C
:105460000D490968884705463DB90C492068096817
:105470008847002060602060E2E725B12846D4E933
:105480000012FAF765FE05492068096888476760D9
:105490002560A0682844D3E7380000203C000020A5
:1054A0002DE9F041C1F30A52A2F2FF362F4A304BE8
:1054B0000D460446142E2FDA002E12DAFAF7DAFF20
:1054C00000221346FBF744F94CD2002DA4BF002460
:1054D000254647DA25F00040204318BF254D41D02E
:1054E00018E0DFF894C02CFA06F705EA070C5CEA2E
:1054F000040C08BFBDE8F081FAF7BCFF0022134698
:10550000FBF726F92ED2002D03DA4FF48010F0407D
:105510000544BD43002425E0332EC8BFBDE8F0811B
:10552000A6F1140C4FF0FF3727FA0CF73C4208BFE6
:10553000BDE8F081FBF742F800221346FBF708F9BB
:1055400010D2002D0DDA142E08BF6D1C09D0C6F143
:105550003400012101FA00F02044A04238BF6D1C44
:105560000446BC4329462046BDE8F0819C7500886E
:105570003CE4377E0000F0BFFFFF0F0000BF054A8C
:10558000126802F04002002AF9D0C2B2014B1B1D82
:105590001A6070470038014010B5002821D0114B27
:1055A0000022001F196803E0814203D80A464968B7
:1055B0000029F9D152B11368841A9C4204D10068C1
:1055C00018441060104602E0506000E0186039B1E5
:1055D00002680B1A934203D10B681A4402604968AF
:1055E000416010BD5000002008B5FCF7A1FBFEF79C
:1055F000ABFBFDF745FEFDF76FFEFDF7ABFEFDF7DC
:10560000CFFEFDF7EFFEF5A0FEF7F4FFFDF77EFFFE
:10561000F4A201210846FEF747F8F7A20121022073
:10562000FEF742F8FEF766FAFDF770FDFEF76EFB37
:1056300002F024FF05E06420FCF7E4F8F3A0FEF795
:10564000D9FFF748FBF732FF0028F4D1FEF7BAFA8A
:105650004FF47A70FCF7D6F8F2A0FEF7CBFFF7A272
:1056600001210220FEF720F84FF47A70FCF7CAF807
:1056700000F058BE02F070FDFDF7D3FEF44800784C
:10568000062880F04E86DFE810F006008501F8025B
:10569000C4030E05D305EFA201210846FEF704F866
:1056A00075E1F048007801281CD1FDF7BAFEEEA2A2
:1056B00001210846FDF7F8FFEFA201210220FDF7C6
:1056C000F3FFF0A201210320FDF7EEFFFBF76EFCD4
:1056D0000020E449087008460178EC480078FFF79C
:1056E00035FE55E1EA480078012828D1FDF799FEFA
:1056F000DDA201210846FDF7D7FFDFA2012102202C
:10570000FDF7D2FFDFA201210320FDF7CDFF01202D
:10571000D449087008460178DC480078FFF716FE87
:10572000FBF744FC0020CF49087008460178D748B1
:105730000078FFF70BFE0020D549087028E1FDF73F
:105740000BFDD449087008460078012802D1C049F1
:1057500008701DE1D0495220FEF750F900287CD195
:10576000CE48FEF70CF800289AD1CC480078CC49F6
:105770000978884235D1C9484078C9494978884272
:105780002FD1C6488078C6498978884229D1C34834
:10579000C078C349C978884223D1FDF742FEB2A23E
:1057A00001210846FDF780FFBEA201210220FDF77E
:1057B0007BFF0120AB49087008460178B3480078A8
:1057C000FFF7C4FDFBF7F2FB0020A649087008466E
:1057D0000178AE480078FFF7B9FD00209C490870B9
:1057E000D6E0AE480078B2490978884236D1AB4855
:1057F0004078AF494978884230D1A8488078AC4990
:10580000897888422AD1A548C078A949C9788842B0
:1058100024D1FDF706FE94A201210846FDF744FFBE
:10582000A4A201210220FDF73FFF01208D4908704D
:105830000846017895480078FFF788FDFBF7B6FB2E
:105840000020884908700846017890480078FFF7E2
:105850007DFD00207E4908709AE090E08F48007836
:1058600097490978884235D18C48407894494978DD
:1058700088422FD18948807891498978884229D1F6
:105880008648C0788E49C978884223D1FDF7C9FD82
:1058900075A201210846FDF707FF8AA20121022017
:1058A000FDF702FF01206F4908700846017877482C
:1058B0000078FFF74BFDFBF779FB00206949087082
:1058C0000846017871480078FFF740FD00206049E4
:1058D00008705DE0714800787D490978884235D1CB
:1058E0006E4840787A49497888422FD16B48807851
:1058F00077498978884229D16848C0787449C9783D
:10590000884223D1FDF78DFD57A201210846FDF7FE
:10591000CBFE70A201210220FDF7C6FE01205149F5
:1059200008700846017859480078FFF70FFDFBF72B
:105930003DFB00204B490870084601785348007829
:10594000FFF704FD00204249087021E0FDF769FDE2
:1059500063A201210846FDF7A7FE65A201210220EE
:10596000FDF7A2FE66A201210320FDF79DFE40F691
:10597000B830FBF747FF00203549087008E001F018
:10598000D1FD002803DB00203149087000E088E6E3
:1059900000BF3DE2FDF745FD5D480078012806D0D7
:1059A000022819D0032818D0042814D100E159A2E4
:1059B00001210846FDF778FE59A201210220FDF7DA
:1059C00073FE5BA201210320FDF76EFE5CA20121A4
:1059D0000420FDF769FE02E1BCE0D2E044656D6F92
:1059E00031000000202057656C636F6D6520486FA3
:1059F0006D652120000000002020206C6F6164692B
:105A00006E672E2E2E2020200000000066696E6733
:105A1000657220696E697420616761696E0D0A00A4
:105A200018000020CBF9D3D0C4A3BFE9D2D1B3F57D
:105A3000CABCBBAFB3C9B9A60D0A00002020494EAD
:105A4000495420535543434553532120000000003F
:105A5000060000202020506C6561736520756E6C17
:105A60006F636B0003000020556E6C6F636B2073D7
:105A700075636365737300004661636520756E6CC2
:105A80006F636B00737563636573730002000020BE
:105A90000400002007000020200000201C0000203F
:105AA00024000020636172642049443A20300000E1
:105AB00028000020636172642049443A20310000CC
:105AC0002C000020636172642049443A20320000B7
:105AD00030000020636172642049443A20330000A2
